{
  "transactions": [
    {
      "hash": "0xab16506c4164e6e61f0eed09cee700edc5b512b78db5e4fa2b44ab2e101507dc",
      "transactionType": "CALL",
      "contractName": null,
      "contractAddress": "0x03b79ac38cc48d6cc0e37390b54426d1b48b3138",
      "function": "startCrowdfund(uint256,uint256,uint256,uint256,uint256,uint256)",
      "arguments": [
        "1",
        "1000000000000000000000",
        "0",
        "259200",
        "50000000000000000000000",
        "100000000000000000000000"
      ],
      "transaction": {
        "from": "0x617eca02ee345f7db08a941f22cef7b284484e2e",
        "to": "0x03b79ac38cc48d6cc0e37390b54426d1b48b3138",
        "gas": "0x35965",
        "value": "0x0",
        "input": "0xa6fc78ed000000000000000000000000000000000000000000000000000000000000000100000000000000000000000000000000000000000000003635c9adc5dea000000000000000000000000000000000000000000000000000000000000000000000000000000000000000000000000000000000000000000000000000000003f480000000000000000000000000000000000000000000000a968163f0a57b40000000000000000000000000000000000000000000000000152d02c7e14af6800000",
        "nonce": "0x3",
        "chainId": "0x106a"
      },
      "additionalContracts": [],
      "isFixedGasLimit": false
    }
  ],
  "receipts": [
    {
      "status": "0x1",
      "cumulativeGasUsed": "0x2f580",
      "logs": [
        {
          "address": "0x03b79ac38cc48d6cc0e37390b54426d1b48b3138",
          "topics": [
            "0x93df0e6341463b29c9122832d2ebfef0d6f61f006241370c0ca79325ae058dfc"
          ],
          "data": "0x000000000000000000000000000000000000000000000000000000000000000100000000000000000000000000000000000000000000003635c9adc5dea000000000000000000000000000000000000000000000000000000000000000000000000000000000000000000000000000000000000000000000000000000003f480000000000000000000000000000000000000000000000a968163f0a57b40000000000000000000000000000000000000000000000000152d02c7e14af6800000",
          "blockHash": "0x5590d41ef9a055019a0e0ddb514f7d9b64450e08b969a90ebd5e997e8e6df08c",
          "blockNumber": "0x79efd2",
          "transactionHash": "0xab16506c4164e6e61f0eed09cee700edc5b512b78db5e4fa2b44ab2e101507dc",
          "transactionIndex": "0x1",
          "logIndex": "0x0",
          "removed": false
        }
      ],
      "logsBloom": "0x00000000000000000000000000000000000000000000000000000000000080000000000000000000000000008000000000000000000000000000000000000000000000000000000000000000000000000000000000000000000000000000000000000000000000000000000000000000000000000000000000000000000000000000000000000000000000000000200000000000000000000000000000000000000000000000000000000000000000000000001000000000000000000000100000000000000000000000000000000000000000000000000000000000000000000000010000000000000000000000000000000000000000000000000000000000",
      "type": "0x2",
      "transactionHash": "0xab16506c4164e6e61f0eed09cee700edc5b512b78db5e4fa2b44ab2e101507dc",
      "transactionIndex": "0x1",
      "blockHash": "0x5590d41ef9a055019a0e0ddb514f7d9b64450e08b969a90ebd5e997e8e6df08c",
      "blockNumber": "0x79efd2",
      "gasUsed": "0x24a41",
      "effectiveGasPrice": "0xfe",
      "from": "0x617eca02ee345f7db08a941f22cef7b284484e2e",
      "to": "0x03b79ac38cc48d6cc0e37390b54426d1b48b3138",
      "contractAddress": null,
      "l1BaseFeeScalar": "0x2af8",
      "l1BlobBaseFee": "0x1",
      "l1BlobBaseFeeScalar": "0x109618",
      "l1Fee": "0x72baf613f7",
      "l1GasPrice": "0x67d3b26f6",
      "l1GasUsed": "0x647"
    }
  ],
  "libraries": [],
  "pending": [],
  "returns": {},
  "timestamp": 1721295497,
  "chain": 4202,
  "commit": "7459ce0"
}