{
  "transactions": [
    {
      "hash": "0x1dbde6952e2c50fd59e1bc5bb59d734e198107099d82d4f2286c4553deebff87",
      "transactionType": "CALL",
      "contractName": null,
      "contractAddress": "0x07d053e6bbaebbb9f8cc1217b4d6a65155d7538b",
      "function": "startCrowdfund(uint256,uint256,uint256,uint256,uint256,uint256,bool)",
      "arguments": [
        "1",
        "10000000000000000",
        "0",
        "259200",
        "500000000000000000",
        "1000000000000000000",
        "false"
      ],
      "transaction": {
        "from": "0x617eca02ee345f7db08a941f22cef7b284484e2e",
        "to": "0x07d053e6bbaebbb9f8cc1217b4d6a65155d7538b",
        "gas": "0x358c2",
        "value": "0x0",
        "input": "0x2e6acce70000000000000000000000000000000000000000000000000000000000000001000000000000000000000000000000000000000000000000002386f26fc100000000000000000000000000000000000000000000000000000000000000000000000000000000000000000000000000000000000000000000000000000003f48000000000000000000000000000000000000000000000000006f05b59d3b200000000000000000000000000000000000000000000000000000de0b6b3a76400000000000000000000000000000000000000000000000000000000000000000000",
        "nonce": "0xf",
        "chainId": "0x106a"
      },
      "additionalContracts": [],
      "isFixedGasLimit": false
    }
  ],
  "receipts": [
    {
      "status": "0x1",
      "cumulativeGasUsed": "0x2f511",
      "logs": [
        {
          "address": "0x07d053e6bbaebbb9f8cc1217b4d6a65155d7538b",
          "topics": [
            "0x93df0e6341463b29c9122832d2ebfef0d6f61f006241370c0ca79325ae058dfc"
          ],
          "data": "0x0000000000000000000000000000000000000000000000000000000000000001000000000000000000000000000000000000000000000000002386f26fc100000000000000000000000000000000000000000000000000000000000000000000000000000000000000000000000000000000000000000000000000000003f48000000000000000000000000000000000000000000000000006f05b59d3b200000000000000000000000000000000000000000000000000000de0b6b3a7640000",
          "blockHash": "0x76e56263b16db4e61f1b3d7e0344fc1eee2a72857ff378660e2a9558c97533e1",
          "blockNumber": "0x7acbaf",
          "transactionHash": "0x1dbde6952e2c50fd59e1bc5bb59d734e198107099d82d4f2286c4553deebff87",
          "transactionIndex": "0x1",
          "logIndex": "0x0",
          "removed": false
        }
      ],
      "logsBloom": "0x00000000000000000000000000000000000000000000000000000000000000000000000000000000000000008000000000400000000000000000000000000000000000000000000000000000000000000000000000000000000000000000000000000000000000000000000000000000000000000000000000000000000000000000000000000000000000000000200000000000000000000000000000000000000000000000000000000000000000000000000000000000010000000000100000000000000000000000000000000000000000000000000000000000000000000000000000000000000000000002000000000000000000000000000000000000",
      "type": "0x2",
      "transactionHash": "0x1dbde6952e2c50fd59e1bc5bb59d734e198107099d82d4f2286c4553deebff87",
      "transactionIndex": "0x1",
      "blockHash": "0x76e56263b16db4e61f1b3d7e0344fc1eee2a72857ff378660e2a9558c97533e1",
      "blockNumber": "0x7acbaf",
      "gasUsed": "0x249d2",
      "effectiveGasPrice": "0xfe",
      "from": "0x617eca02ee345f7db08a941f22cef7b284484e2e",
      "to": "0x07d053e6bbaebbb9f8cc1217b4d6a65155d7538b",
      "contractAddress": null,
      "l1BaseFeeScalar": "0x2af8",
      "l1BlobBaseFee": "0xa0b",
      "l1BlobBaseFeeScalar": "0x109618",
      "l1Fee": "0x5e7384d8b2",
      "l1GasPrice": "0x55dd5d9ec",
      "l1GasUsed": "0x640"
    }
  ],
  "libraries": [],
  "pending": [],
  "returns": {},
  "timestamp": 1721408066,
  "chain": 4202,
  "commit": "299a1c8"
}