{
  "transactions": [
    {
      "hash": "0x57b15e5bc45cb95985365722e3a3200c9c56c90e3a82935aeaef932a9e00f584",
      "transactionType": "CALL",
      "contractName": null,
      "contractAddress": "0x07d053e6bbaebbb9f8cc1217b4d6a65155d7538b",
      "function": "startCrowdfund(uint256,uint256,uint256,uint256,uint256,uint256,bool)",
      "arguments": [
        "3",
        "10000000000000000",
        "0",
        "2419200",
        "1000000000000000000",
        "2000000000000000000",
        "false"
      ],
      "transaction": {
        "from": "0x617eca02ee345f7db08a941f22cef7b284484e2e",
        "to": "0x07d053e6bbaebbb9f8cc1217b4d6a65155d7538b",
        "gas": "0x32919",
        "value": "0x0",
        "input": "0x2e6acce70000000000000000000000000000000000000000000000000000000000000003000000000000000000000000000000000000000000000000002386f26fc100000000000000000000000000000000000000000000000000000000000000000000000000000000000000000000000000000000000000000000000000000024ea000000000000000000000000000000000000000000000000000de0b6b3a76400000000000000000000000000000000000000000000000000001bc16d674ec800000000000000000000000000000000000000000000000000000000000000000000",
        "nonce": "0x12",
        "chainId": "0x106a"
      },
      "additionalContracts": [],
      "isFixedGasLimit": false
    }
  ],
  "receipts": [
    {
      "status": "0x1",
      "cumulativeGasUsed": "0x2f505",
      "logs": [
        {
          "address": "0x07d053e6bbaebbb9f8cc1217b4d6a65155d7538b",
          "topics": [
            "0x93df0e6341463b29c9122832d2ebfef0d6f61f006241370c0ca79325ae058dfc"
          ],
          "data": "0x0000000000000000000000000000000000000000000000000000000000000003000000000000000000000000000000000000000000000000002386f26fc100000000000000000000000000000000000000000000000000000000000000000000000000000000000000000000000000000000000000000000000000000024ea000000000000000000000000000000000000000000000000000de0b6b3a76400000000000000000000000000000000000000000000000000001bc16d674ec80000",
          "blockHash": "0xb8447ae60e8960137bbab022be941036e5ccd66403710df782361e98743dd4f1",
          "blockNumber": "0x7ce4be",
          "transactionHash": "0x57b15e5bc45cb95985365722e3a3200c9c56c90e3a82935aeaef932a9e00f584",
          "transactionIndex": "0x1",
          "logIndex": "0x0",
          "removed": false
        }
      ],
      "logsBloom": "0x00000000000000000000000000000000000000000000000000000000000000000000000000000000000000008000000000400000000000000000000000000000000000000000000000000000000000000000000000000000000000000000000000000000000000000000000000000000000000000000000000000000000000000000000000000000000000000000200000000000000000000000000000000000000000000000000000000000000000000000000000000000010000000000100000000000000000000000000000000000000000000000000000000000000000000000000000000000000000000002000000000000000000000000000000000000",
      "type": "0x2",
      "transactionHash": "0x57b15e5bc45cb95985365722e3a3200c9c56c90e3a82935aeaef932a9e00f584",
      "transactionIndex": "0x1",
      "blockHash": "0xb8447ae60e8960137bbab022be941036e5ccd66403710df782361e98743dd4f1",
      "blockNumber": "0x7ce4be",
      "gasUsed": "0x249c6",
      "effectiveGasPrice": "0xfe",
      "from": "0x617eca02ee345f7db08a941f22cef7b284484e2e",
      "to": "0x07d053e6bbaebbb9f8cc1217b4d6a65155d7538b",
      "contractAddress": null,
      "l1BaseFeeScalar": "0x2af8",
      "l1BlobBaseFee": "0x2ce745d",
      "l1BlobBaseFeeScalar": "0x109618",
      "l1Fee": "0x131101b3e",
      "l1GasPrice": "0x16b",
      "l1GasUsed": "0x640"
    }
  ],
  "libraries": [],
  "pending": [],
  "returns": {},
  "timestamp": 1721683041,
  "chain": 4202,
  "commit": "ecb4ae9"
}