{
  "transactions": [
    {
      "hash": null,
      "transactionType": "CALL",
      "contractName": null,
      "contractAddress": "0x07d053e6bbaebbb9f8cc1217b4d6a65155d7538b",
      "function": "startCrowdfund(uint256,uint256,uint256,uint256,uint256,uint256,bool)",
      "arguments": [
        "3",
        "10000000000000000",
        "0",
        "2419200",
        "1000000000000000000",
        "2000000000000000000",
        "false"
      ],
      "transaction": {
        "from": "0x617eca02ee345f7db08a941f22cef7b284484e2e",
        "to": "0x07d053e6bbaebbb9f8cc1217b4d6a65155d7538b",
        "gas": "0x32919",
        "value": "0x0",
        "input": "0x2e6acce70000000000000000000000000000000000000000000000000000000000000003000000000000000000000000000000000000000000000000002386f26fc100000000000000000000000000000000000000000000000000000000000000000000000000000000000000000000000000000000000000000000000000000024ea000000000000000000000000000000000000000000000000000de0b6b3a76400000000000000000000000000000000000000000000000000001bc16d674ec800000000000000000000000000000000000000000000000000000000000000000000",
        "nonce": "0x12",
        "chainId": "0x106a"
      },
      "additionalContracts": [],
      "isFixedGasLimit": false
    }
  ],
  "receipts": [],
  "libraries": [],
  "pending": [],
  "returns": {},
  "timestamp": 1721682381,
  "chain": 4202,
  "commit": "ecb4ae9"
}