{
  "transactions": [
    {
      "hash": "0x55ca2f65da2ad72f5bfada59907a032f1673aa56baffc3d473cba9b76422e8a0",
      "transactionType": "CALL",
      "contractName": null,
      "contractAddress": "0xafe36892a12da935cd1006db78282a5e128a6673",
      "function": "startCrowdfund(uint256,uint256,uint256,uint256,uint256,uint256,bool)",
      "arguments": [
        "1",
        "1000000000000000000000",
        "0",
        "259200",
        "50000000000000000000000",
        "100000000000000000000000",
        "false"
      ],
      "transaction": {
        "from": "0x617eca02ee345f7db08a941f22cef7b284484e2e",
        "to": "0xafe36892a12da935cd1006db78282a5e128a6673",
        "gas": "0x329a8",
        "value": "0x0",
        "input": "0x2e6acce7000000000000000000000000000000000000000000000000000000000000000100000000000000000000000000000000000000000000003635c9adc5dea000000000000000000000000000000000000000000000000000000000000000000000000000000000000000000000000000000000000000000000000000000003f480000000000000000000000000000000000000000000000a968163f0a57b40000000000000000000000000000000000000000000000000152d02c7e14af68000000000000000000000000000000000000000000000000000000000000000000000",
        "nonce": "0x8",
        "chainId": "0x106a"
      },
      "additionalContracts": [],
      "isFixedGasLimit": false
    }
  ],
  "receipts": [
    {
      "status": "0x1",
      "cumulativeGasUsed": "0x2f561",
      "logs": [
        {
          "address": "0xafe36892a12da935cd1006db78282a5e128a6673",
          "topics": [
            "0x93df0e6341463b29c9122832d2ebfef0d6f61f006241370c0ca79325ae058dfc"
          ],
          "data": "0x000000000000000000000000000000000000000000000000000000000000000100000000000000000000000000000000000000000000003635c9adc5dea000000000000000000000000000000000000000000000000000000000000000000000000000000000000000000000000000000000000000000000000000000003f480000000000000000000000000000000000000000000000a968163f0a57b40000000000000000000000000000000000000000000000000152d02c7e14af6800000",
          "blockHash": "0xd6b34f69ab9576ea30c41ed3edf7e3b7da645e7218743388ed6981c8ccabf49b",
          "blockNumber": "0x7a719d",
          "transactionHash": "0x55ca2f65da2ad72f5bfada59907a032f1673aa56baffc3d473cba9b76422e8a0",
          "transactionIndex": "0x1",
          "logIndex": "0x0",
          "removed": false
        }
      ],
      "logsBloom": "0x00000000000000000000000000000000000000000000000000000000000000020000000000000000000000008000000000000000000000000000000000000000000000000000000000000400000000000000000000000000000000000000000000000000000000000000000000000000000000000000000000000000000000000000000000000000000000000000200000000000000000000000000000000000000000000000000000000000000000000000000000000000000000000000100000000000000000000000000000000000000000000000000000000100000000000000000000000000000000000000000000000000000000000000000000000000",
      "type": "0x2",
      "transactionHash": "0x55ca2f65da2ad72f5bfada59907a032f1673aa56baffc3d473cba9b76422e8a0",
      "transactionIndex": "0x1",
      "blockHash": "0xd6b34f69ab9576ea30c41ed3edf7e3b7da645e7218743388ed6981c8ccabf49b",
      "blockNumber": "0x7a719d",
      "gasUsed": "0x24a2e",
      "effectiveGasPrice": "0xfe",
      "from": "0x617eca02ee345f7db08a941f22cef7b284484e2e",
      "to": "0xafe36892a12da935cd1006db78282a5e128a6673",
      "contractAddress": null,
      "l1BaseFeeScalar": "0x2af8",
      "l1BlobBaseFee": "0x1",
      "l1BlobBaseFeeScalar": "0x109618",
      "l1Fee": "0x18b2b11ad",
      "l1GasPrice": "0x15a16045",
      "l1GasUsed": "0x67c"
    }
  ],
  "libraries": [],
  "pending": [],
  "returns": {},
  "timestamp": 1721361949,
  "chain": 4202,
  "commit": "7459ce0"
}