{
  "transactions": [
    {
      "hash": "0x29966fb754a6ace4e1fb6c2b9fb043c018c7001ae0c9c619353950907e5e2b6d",
      "transactionType": "CALL",
      "contractName": null,
      "contractAddress": "0xb5c3b81f5be0007b3e74b46526fa47c88740c73d",
      "function": "startCrowdfund(uint256,uint256,uint256,uint256,uint256,uint256,bool)",
      "arguments": [
        "1",
        "1000000000000000000000",
        "0",
        "259200",
        "50000000000000000000000",
        "100000000000000000000000",
        "false"
      ],
      "transaction": {
        "from": "0x617eca02ee345f7db08a941f22cef7b284484e2e",
        "to": "0xb5c3b81f5be0007b3e74b46526fa47c88740c73d",
        "gas": "0x329a8",
        "value": "0x0",
        "input": "0x2e6acce7000000000000000000000000000000000000000000000000000000000000000100000000000000000000000000000000000000000000003635c9adc5dea000000000000000000000000000000000000000000000000000000000000000000000000000000000000000000000000000000000000000000000000000000003f480000000000000000000000000000000000000000000000a968163f0a57b40000000000000000000000000000000000000000000000000152d02c7e14af68000000000000000000000000000000000000000000000000000000000000000000000",
        "nonce": "0x6",
        "chainId": "0x106a"
      },
      "additionalContracts": [],
      "isFixedGasLimit": false
    }
  ],
  "receipts": [
    {
      "status": "0x1",
      "cumulativeGasUsed": "0x2f555",
      "logs": [
        {
          "address": "0xb5c3b81f5be0007b3e74b46526fa47c88740c73d",
          "topics": [
            "0x93df0e6341463b29c9122832d2ebfef0d6f61f006241370c0ca79325ae058dfc"
          ],
          "data": "0x000000000000000000000000000000000000000000000000000000000000000100000000000000000000000000000000000000000000003635c9adc5dea000000000000000000000000000000000000000000000000000000000000000000000000000000000000000000000000000000000000000000000000000000003f480000000000000000000000000000000000000000000000a968163f0a57b40000000000000000000000000000000000000000000000000152d02c7e14af6800000",
          "blockHash": "0xb0bb4b83aa446a9f32f708ff985bde6258e869e7e09f1c93db83706215f1e733",
          "blockNumber": "0x7a6c1c",
          "transactionHash": "0x29966fb754a6ace4e1fb6c2b9fb043c018c7001ae0c9c619353950907e5e2b6d",
          "transactionIndex": "0x1",
          "logIndex": "0x0",
          "removed": false
        }
      ],
      "logsBloom": "0x00000000000000000000000000000000000000000000000000000000000000000000000000001000000000008000000000000000000000000000000000000000000000000000000000000000000000000000000000000000000000000000000000000000000000000000000004000000000000000000000000000000000000000000000000000000000000000400200000000000000000000000000000000000000000000000000000000000000000000000000000000000000000000000100000000000000000000000000000000000000000000000000000000000000000000000000000000000000000000000000000000000000000000000000000000000",
      "type": "0x2",
      "transactionHash": "0x29966fb754a6ace4e1fb6c2b9fb043c018c7001ae0c9c619353950907e5e2b6d",
      "transactionIndex": "0x1",
      "blockHash": "0xb0bb4b83aa446a9f32f708ff985bde6258e869e7e09f1c93db83706215f1e733",
      "blockNumber": "0x7a6c1c",
      "gasUsed": "0x24a2e",
      "effectiveGasPrice": "0xfe",
      "from": "0x617eca02ee345f7db08a941f22cef7b284484e2e",
      "to": "0xb5c3b81f5be0007b3e74b46526fa47c88740c73d",
      "contractAddress": null,
      "l1BaseFeeScalar": "0x2af8",
      "l1BlobBaseFee": "0x1",
      "l1BlobBaseFeeScalar": "0x109618",
      "l1Fee": "0x75f5731f",
      "l1GasPrice": "0x674ebf2",
      "l1GasUsed": "0x67c"
    }
  ],
  "libraries": [],
  "pending": [],
  "returns": {},
  "timestamp": 1721359131,
  "chain": 4202,
  "commit": "7459ce0"
}