{
  "transactions": [
    {
      "hash": "0xb5deeee1faa11b08e6e89fd729bf03790773c47cd53141c86880f7d5fe35fee9",
      "transactionType": "CALL",
      "contractName": null,
      "contractAddress": "0xfa1372203590a0b80d04d5f12cae15bfd7a144b8",
      "function": "approve(address,uint256)",
      "arguments": [
        "0xAFE36892a12da935cd1006dB78282a5E128a6673",
        "1000000000000000000000000000"
      ],
      "transaction": {
        "from": "0x25d8d7bff4d6c7af503b5ede7d4503bd9ad66d6b",
        "to": "0xfa1372203590a0b80d04d5f12cae15bfd7a144b8",
        "gas": "0xf82d",
        "value": "0x0",
        "input": "0x095ea7b3000000000000000000000000afe36892a12da935cd1006db78282a5e128a66730000000000000000000000000000000000000000033b2e3c9fd0803ce8000000",
        "nonce": "0x16",
        "chainId": "0x106a"
      },
      "additionalContracts": [],
      "isFixedGasLimit": false
    },
    {
      "hash": "0x7d07fe8c9f76b96081b8cd41568c5fa6538958dc1e21dfe094f66c2fee0b9abc",
      "transactionType": "CALL",
      "contractName": null,
      "contractAddress": "0xafe36892a12da935cd1006db78282a5e128a6673",
      "function": "delegateToken(uint256,uint256)",
      "arguments": [
        "1",
        "1"
      ],
      "transaction": {
        "from": "0x25d8d7bff4d6c7af503b5ede7d4503bd9ad66d6b",
        "to": "0xafe36892a12da935cd1006db78282a5e128a6673",
        "gas": "0x2cf99",
        "value": "0x0",
        "input": "0x18bcff0e00000000000000000000000000000000000000000000000000000000000000010000000000000000000000000000000000000000000000000000000000000001",
        "nonce": "0x17",
        "chainId": "0x106a"
      },
      "additionalContracts": [],
      "isFixedGasLimit": false
    }
  ],
  "receipts": [
    {
      "status": "0x1",
      "cumulativeGasUsed": "0x15eed",
      "logs": [
        {
          "address": "0xfa1372203590a0b80d04d5f12cae15bfd7a144b8",
          "topics": [
            "0x8c5be1e5ebec7d5bd14f71427d1e84f3dd0314c0f7b2291e5b200ac8c7c3b925",
            "0x00000000000000000000000025d8d7bff4d6c7af503b5ede7d4503bd9ad66d6b",
            "0x000000000000000000000000afe36892a12da935cd1006db78282a5e128a6673"
          ],
          "data": "0x0000000000000000000000000000000000000000033b2e3c9fd0803ce8000000",
          "blockHash": "0xda44c066a2be551b8739de8cf5fcdd130c705c011ebf9e87df994a453440ca14",
          "blockNumber": "0x7a7b54",
          "transactionHash": "0xb5deeee1faa11b08e6e89fd729bf03790773c47cd53141c86880f7d5fe35fee9",
          "transactionIndex": "0x1",
          "logIndex": "0x0",
          "removed": false
        }
      ],
      "logsBloom": "0x00000000000000000000000000000000000000004000000000000400000000000000000000000000000000000000000000000000000000000000000001200000000001000000000000000000800000000000000000000000000000000000000000000000000000000000000100000000000000000000002000000000000000000000000000000000000000000000000000000000000000000000000000000000020000000000000000000000000002000000000000000000000000000000000000000000000000000000000000000000000000000000000000000000000000000010000000000000000000008000000000000000000000000000000000000000",
      "type": "0x2",
      "transactionHash": "0xb5deeee1faa11b08e6e89fd729bf03790773c47cd53141c86880f7d5fe35fee9",
      "transactionIndex": "0x1",
      "blockHash": "0xda44c066a2be551b8739de8cf5fcdd130c705c011ebf9e87df994a453440ca14",
      "blockNumber": "0x7a7b54",
      "gasUsed": "0xb3ae",
      "effectiveGasPrice": "0xfe",
      "from": "0x25d8d7bff4d6c7af503b5ede7d4503bd9ad66d6b",
      "to": "0xfa1372203590a0b80d04d5f12cae15bfd7a144b8",
      "contractAddress": null,
      "l1BaseFeeScalar": "0x2af8",
      "l1BlobBaseFee": "0x2348",
      "l1BlobBaseFeeScalar": "0x109618",
      "l1Fee": "0xa6a88f2cd",
      "l1GasPrice": "0x97811c9f",
      "l1GasUsed": "0x640"
    },
    {
      "status": "0x1",
      "cumulativeGasUsed": "0x34af6",
      "logs": [
        {
          "address": "0xfa1372203590a0b80d04d5f12cae15bfd7a144b8",
          "topics": [
            "0xddf252ad1be2c89b69c2b068fc378daa952ba7f163c4a11628f55a4df523b3ef",
            "0x00000000000000000000000025d8d7bff4d6c7af503b5ede7d4503bd9ad66d6b",
            "0x000000000000000000000000afe36892a12da935cd1006db78282a5e128a6673"
          ],
          "data": "0x00000000000000000000000000000000000000000000003635c9adc5dea00000",
          "blockHash": "0xda44c066a2be551b8739de8cf5fcdd130c705c011ebf9e87df994a453440ca14",
          "blockNumber": "0x7a7b54",
          "transactionHash": "0x7d07fe8c9f76b96081b8cd41568c5fa6538958dc1e21dfe094f66c2fee0b9abc",
          "transactionIndex": "0x2",
          "logIndex": "0x1",
          "removed": false
        },
        {
          "address": "0xafe36892a12da935cd1006db78282a5e128a6673",
          "topics": [
            "0x57413e5f08a57c393e82cc68e32f98fac185cf89e65b730a46ef43a1ac1d6795"
          ],
          "data": "0x000000000000000000000000000000000000000000000000000000000000000100000000000000000000000000000000000000000000003635c9adc5dea000000000000000000000000000000000000000000000000000000000000000000001",
          "blockHash": "0xda44c066a2be551b8739de8cf5fcdd130c705c011ebf9e87df994a453440ca14",
          "blockNumber": "0x7a7b54",
          "transactionHash": "0x7d07fe8c9f76b96081b8cd41568c5fa6538958dc1e21dfe094f66c2fee0b9abc",
          "transactionIndex": "0x2",
          "logIndex": "0x2",
          "removed": false
        }
      ],
      "logsBloom": "0x00000000000000000000000000000000000000004000000000000400000000020000000000000000000000000000000000000000000000000000000001000000000001000000000000000408800000000000000000000000000000000000000000000000000000000000000110000000000000000000002000000010000000000000000000000000000000000000000000000000000000000000000000000000000000000000000000000000000002000000000000000000080000000000000000000002000000000000000000000000000000000000000000000100000000800000000000000000000000008000000000000000000000000000000000000000",
      "type": "0x2",
      "transactionHash": "0x7d07fe8c9f76b96081b8cd41568c5fa6538958dc1e21dfe094f66c2fee0b9abc",
      "transactionIndex": "0x2",
      "blockHash": "0xda44c066a2be551b8739de8cf5fcdd130c705c011ebf9e87df994a453440ca14",
      "blockNumber": "0x7a7b54",
      "gasUsed": "0x1ec09",
      "effectiveGasPrice": "0xfe",
      "from": "0x25d8d7bff4d6c7af503b5ede7d4503bd9ad66d6b",
      "to": "0xafe36892a12da935cd1006db78282a5e128a6673",
      "contractAddress": null,
      "l1BaseFeeScalar": "0x2af8",
      "l1BlobBaseFee": "0x2348",
      "l1BlobBaseFeeScalar": "0x109618",
      "l1Fee": "0xa6a88f2cd",
      "l1GasPrice": "0x97811c9f",
      "l1GasUsed": "0x640"
    }
  ],
  "libraries": [],
  "pending": [],
  "returns": {},
  "timestamp": 1721366923,
  "chain": 4202,
  "commit": "7459ce0"
}