{
  "transactions": [
    {
      "hash": "0x3d74f65c271958df6f4110eb159707221b16a4e1b9bf49ace6e7f4d204500cef",
      "transactionType": "CALL",
      "contractName": null,
      "contractAddress": "0x07d053e6bbaebbb9f8cc1217b4d6a65155d7538b",
      "function": "delegateEth(uint256,uint256)",
      "arguments": [
        "1",
        "1"
      ],
      "transaction": {
        "from": "0x25d8d7bff4d6c7af503b5ede7d4503bd9ad66d6b",
        "to": "0x07d053e6bbaebbb9f8cc1217b4d6a65155d7538b",
        "gas": "0x1df9d",
        "value": "0x2386f26fc10000",
        "input": "0x806a111000000000000000000000000000000000000000000000000000000000000000010000000000000000000000000000000000000000000000000000000000000001",
        "nonce": "0x1a",
        "chainId": "0x106a"
      },
      "additionalContracts": [],
      "isFixedGasLimit": false
    }
  ],
  "receipts": [
    {
      "status": "0x1",
      "cumulativeGasUsed": "0x1f33c",
      "logs": [
        {
          "address": "0x07d053e6bbaebbb9f8cc1217b4d6a65155d7538b",
          "topics": [
            "0x45e82a2a4b1f72851dec62489cd205bdfd066936a0a0c16ccbb4621735969f38"
          ],
          "data": "0x0000000000000000000000000000000000000000000000000000000000000001000000000000000000000000000000000000000000000000002386f26fc100000000000000000000000000000000000000000000000000000000000000000001",
          "blockHash": "0x60450cd94cb44b1490d0aade15f74e7d6cd4b10387927c81cd385560f3963d75",
          "blockNumber": "0x7acc93",
          "transactionHash": "0x3d74f65c271958df6f4110eb159707221b16a4e1b9bf49ace6e7f4d204500cef",
          "transactionIndex": "0x1",
          "logIndex": "0x0",
          "removed": false
        }
      ],
      "logsBloom": "0x00000000000000000000000000000000000000000000000000000000000000000000000000000000000000000000000000400000000000000000000000000000000000000000000000000000000000000000000000000000000000000000000000000000000000000000000000000000000000000000000000040000004000000000000000000000000000000000000000000000000000000000000000000000000000000000000000000000000000000020000000000000010000000000000000000000000000000000000000000000000000000000000000000000000000000000000000000000000000000002000000000000000000000000000000000000",
      "type": "0x2",
      "transactionHash": "0x3d74f65c271958df6f4110eb159707221b16a4e1b9bf49ace6e7f4d204500cef",
      "transactionIndex": "0x1",
      "blockHash": "0x60450cd94cb44b1490d0aade15f74e7d6cd4b10387927c81cd385560f3963d75",
      "blockNumber": "0x7acc93",
      "gasUsed": "0x147f1",
      "effectiveGasPrice": "0xfe",
      "from": "0x25d8d7bff4d6c7af503b5ede7d4503bd9ad66d6b",
      "to": "0x07d053e6bbaebbb9f8cc1217b4d6a65155d7538b",
      "contractAddress": null,
      "l1BaseFeeScalar": "0x2af8",
      "l1BlobBaseFee": "0x895",
      "l1BlobBaseFeeScalar": "0x109618",
      "l1Fee": "0x5e2a946b55",
      "l1GasPrice": "0x559b0f401",
      "l1GasUsed": "0x640"
    }
  ],
  "libraries": [],
  "pending": [],
  "returns": {},
  "timestamp": 1721408522,
  "chain": 4202,
  "commit": "299a1c8"
}