{
  "transactions": [
    {
      "hash": "0xdab28d1a51ef5c5d182c5a481b5efab1fde992493f1ae8c958ced860dfb9ca09",
      "transactionType": "CALL",
      "contractName": null,
      "contractAddress": "0x07d053e6bbaebbb9f8cc1217b4d6a65155d7538b",
      "function": "delegateEth(uint256,uint256)",
      "arguments": [
        "3",
        "1"
      ],
      "transaction": {
        "from": "0x25d8d7bff4d6c7af503b5ede7d4503bd9ad66d6b",
        "to": "0x07d053e6bbaebbb9f8cc1217b4d6a65155d7538b",
        "gas": "0x1df9d",
        "value": "0x2386f26fc10000",
        "input": "0x806a111000000000000000000000000000000000000000000000000000000000000000030000000000000000000000000000000000000000000000000000000000000001",
        "nonce": "0x1c",
        "chainId": "0x106a"
      },
      "additionalContracts": [],
      "isFixedGasLimit": false
    }
  ],
  "receipts": [
    {
      "status": "0x1",
      "cumulativeGasUsed": "0x1f324",
      "logs": [
        {
          "address": "0x07d053e6bbaebbb9f8cc1217b4d6a65155d7538b",
          "topics": [
            "0x45e82a2a4b1f72851dec62489cd205bdfd066936a0a0c16ccbb4621735969f38"
          ],
          "data": "0x0000000000000000000000000000000000000000000000000000000000000003000000000000000000000000000000000000000000000000002386f26fc100000000000000000000000000000000000000000000000000000000000000000001",
          "blockHash": "0x48d58def98e43e3436cb33ed61d5dfbee5655b587b8f5107cc77b2740cc725e5",
          "blockNumber": "0x7ce560",
          "transactionHash": "0xdab28d1a51ef5c5d182c5a481b5efab1fde992493f1ae8c958ced860dfb9ca09",
          "transactionIndex": "0x1",
          "logIndex": "0x0",
          "removed": false
        }
      ],
      "logsBloom": "0x00000000000000000000000000000000000000000000000000000000000000000000000000000000000000000000000000400000000000000000000000000000000000000000000000000000000000000000000000000000000000000000000000000000000000000000000000000000000000000000000000040000004000000000000000000000000000000000000000000000000000000000000000000000000000000000000000000000000000000020000000000000010000000000000000000000000000000000000000000000000000000000000000000000000000000000000000000000000000000002000000000000000000000000000000000000",
      "type": "0x2",
      "transactionHash": "0xdab28d1a51ef5c5d182c5a481b5efab1fde992493f1ae8c958ced860dfb9ca09",
      "transactionIndex": "0x1",
      "blockHash": "0x48d58def98e43e3436cb33ed61d5dfbee5655b587b8f5107cc77b2740cc725e5",
      "blockNumber": "0x7ce560",
      "gasUsed": "0x147f1",
      "effectiveGasPrice": "0xfe",
      "from": "0x25d8d7bff4d6c7af503b5ede7d4503bd9ad66d6b",
      "to": "0x07d053e6bbaebbb9f8cc1217b4d6a65155d7538b",
      "contractAddress": null,
      "l1BaseFeeScalar": "0x2af8",
      "l1BlobBaseFee": "0x12ee318",
      "l1BlobBaseFeeScalar": "0x109618",
      "l1Fee": "0x809bdd52",
      "l1GasPrice": "0x8f",
      "l1GasUsed": "0x640"
    }
  ],
  "libraries": [],
  "pending": [],
  "returns": {},
  "timestamp": 1721683361,
  "chain": 4202,
  "commit": "ecb4ae9"
}