{
  "transactions": [
    {
      "hash": "0x30d866273b46cd7e07d3ef8cc100feba99180a89faadc2c977505de6b877d29d",
      "transactionType": "CALL",
      "contractName": null,
      "contractAddress": "0xfa1372203590a0b80d04d5f12cae15bfd7a144b8",
      "function": "approve(address,uint256)",
      "arguments": [
        "0xb5C3b81F5BE0007b3E74B46526fa47c88740C73d",
        "1000000000000000000000000000"
      ],
      "transaction": {
        "from": "0x25d8d7bff4d6c7af503b5ede7d4503bd9ad66d6b",
        "to": "0xfa1372203590a0b80d04d5f12cae15bfd7a144b8",
        "gas": "0x106b6",
        "value": "0x0",
        "input": "0x095ea7b3000000000000000000000000b5c3b81f5be0007b3e74b46526fa47c88740c73d0000000000000000000000000000000000000000033b2e3c9fd0803ce8000000",
        "nonce": "0x12",
        "chainId": "0x106a"
      },
      "additionalContracts": [],
      "isFixedGasLimit": false
    },
    {
      "hash": "0xb37ed14c74dd8da0a9b8227b95e77d804f41e007a22c3f69b1de1fd53d52f39e",
      "transactionType": "CALL",
      "contractName": null,
      "contractAddress": "0xb5c3b81f5be0007b3e74b46526fa47c88740c73d",
      "function": "delegateToken(uint256,uint256)",
      "arguments": [
        "1",
        "1"
      ],
      "transaction": {
        "from": "0x25d8d7bff4d6c7af503b5ede7d4503bd9ad66d6b",
        "to": "0xb5c3b81f5be0007b3e74b46526fa47c88740c73d",
        "gas": "0x2a7a6",
        "value": "0x0",
        "input": "0x18bcff0e00000000000000000000000000000000000000000000000000000000000000010000000000000000000000000000000000000000000000000000000000000001",
        "nonce": "0x13",
        "chainId": "0x106a"
      },
      "additionalContracts": [],
      "isFixedGasLimit": false
    }
  ],
  "receipts": [
    {
      "status": "0x1",
      "cumulativeGasUsed": "0x15ed5",
      "logs": [
        {
          "address": "0xfa1372203590a0b80d04d5f12cae15bfd7a144b8",
          "topics": [
            "0x8c5be1e5ebec7d5bd14f71427d1e84f3dd0314c0f7b2291e5b200ac8c7c3b925",
            "0x00000000000000000000000025d8d7bff4d6c7af503b5ede7d4503bd9ad66d6b",
            "0x000000000000000000000000b5c3b81f5be0007b3e74b46526fa47c88740c73d"
          ],
          "data": "0x0000000000000000000000000000000000000000033b2e3c9fd0803ce8000000",
          "blockHash": "0x3e9c8aabd86e78af7b1cb4b073f864d1fc7ef9e34b266cba7daf4b5c62bc828a",
          "blockNumber": "0x7a6e8c",
          "transactionHash": "0x30d866273b46cd7e07d3ef8cc100feba99180a89faadc2c977505de6b877d29d",
          "transactionIndex": "0x1",
          "logIndex": "0x0",
          "removed": false
        }
      ],
      "logsBloom": "0x00000000000000000000000000000000000000004000002000000000000000000000000000000000000000000000000000000000000000000001000000200000000001000000000000000000000000000000000000000000000000000000000000000000000000000000000100000000000000000000002000000000000000000000000000000000000000000000000000000000000000000000000000000000020000000000000000000000000002000000000000000000000000000000000000000000000000000000000000000000000000000000000000000000000000000010000000000000000000008000000004000000000000000000000000000000",
      "type": "0x2",
      "transactionHash": "0x30d866273b46cd7e07d3ef8cc100feba99180a89faadc2c977505de6b877d29d",
      "transactionIndex": "0x1",
      "blockHash": "0x3e9c8aabd86e78af7b1cb4b073f864d1fc7ef9e34b266cba7daf4b5c62bc828a",
      "blockNumber": "0x7a6e8c",
      "gasUsed": "0xb3a2",
      "effectiveGasPrice": "0xfe",
      "from": "0x25d8d7bff4d6c7af503b5ede7d4503bd9ad66d6b",
      "to": "0xfa1372203590a0b80d04d5f12cae15bfd7a144b8",
      "contractAddress": null,
      "l1BaseFeeScalar": "0x2af8",
      "l1BlobBaseFee": "0x1",
      "l1BlobBaseFeeScalar": "0x109618",
      "l1Fee": "0xcf37411b",
      "l1GasPrice": "0xbc60c67",
      "l1GasUsed": "0x640"
    },
    {
      "status": "0x1",
      "cumulativeGasUsed": "0x34ae4",
      "logs": [
        {
          "address": "0xfa1372203590a0b80d04d5f12cae15bfd7a144b8",
          "topics": [
            "0xddf252ad1be2c89b69c2b068fc378daa952ba7f163c4a11628f55a4df523b3ef",
            "0x00000000000000000000000025d8d7bff4d6c7af503b5ede7d4503bd9ad66d6b",
            "0x000000000000000000000000b5c3b81f5be0007b3e74b46526fa47c88740c73d"
          ],
          "data": "0x00000000000000000000000000000000000000000000003635c9adc5dea00000",
          "blockHash": "0x3e9c8aabd86e78af7b1cb4b073f864d1fc7ef9e34b266cba7daf4b5c62bc828a",
          "blockNumber": "0x7a6e8c",
          "transactionHash": "0xb37ed14c74dd8da0a9b8227b95e77d804f41e007a22c3f69b1de1fd53d52f39e",
          "transactionIndex": "0x2",
          "logIndex": "0x1",
          "removed": false
        },
        {
          "address": "0xb5c3b81f5be0007b3e74b46526fa47c88740c73d",
          "topics": [
            "0x57413e5f08a57c393e82cc68e32f98fac185cf89e65b730a46ef43a1ac1d6795"
          ],
          "data": "0x000000000000000000000000000000000000000000000000000000000000000100000000000000000000000000000000000000000000003635c9adc5dea000000000000000000000000000000000000000000000000000000000000000000001",
          "blockHash": "0x3e9c8aabd86e78af7b1cb4b073f864d1fc7ef9e34b266cba7daf4b5c62bc828a",
          "blockNumber": "0x7a6e8c",
          "transactionHash": "0xb37ed14c74dd8da0a9b8227b95e77d804f41e007a22c3f69b1de1fd53d52f39e",
          "transactionIndex": "0x2",
          "logIndex": "0x2",
          "removed": false
        }
      ],
      "logsBloom": "0x00000000000000000000000000000000000000004000002000000000000000000000000000001000000000000000000000000000000000000001000000000000000001000000000000000008000000000000000000000000000000000000000000000000000000000000000114000000000000000000002000000010000000000000000000000000000000000400000000000000000000000000000000000000000000000000000000000000000002000000000000000000080000000000000000000002000000000000000000000000000000000000000000000000000000800000000000000000000000008000000004000000000000000000000000000000",
      "type": "0x2",
      "transactionHash": "0xb37ed14c74dd8da0a9b8227b95e77d804f41e007a22c3f69b1de1fd53d52f39e",
      "transactionIndex": "0x2",
      "blockHash": "0x3e9c8aabd86e78af7b1cb4b073f864d1fc7ef9e34b266cba7daf4b5c62bc828a",
      "blockNumber": "0x7a6e8c",
      "gasUsed": "0x1ec0f",
      "effectiveGasPrice": "0xfe",
      "from": "0x25d8d7bff4d6c7af503b5ede7d4503bd9ad66d6b",
      "to": "0xb5c3b81f5be0007b3e74b46526fa47c88740c73d",
      "contractAddress": null,
      "l1BaseFeeScalar": "0x2af8",
      "l1BlobBaseFee": "0x1",
      "l1BlobBaseFeeScalar": "0x109618",
      "l1Fee": "0xcf37411b",
      "l1GasPrice": "0xbc60c67",
      "l1GasUsed": "0x640"
    }
  ],
  "libraries": [],
  "pending": [],
  "returns": {},
  "timestamp": 1721360380,
  "chain": 4202,
  "commit": "7459ce0"
}