{
  "transactions": [
    {
      "hash": "0xe78011226637cacd19582858de50c2beb35b57f2f6cee74c1f3412208abbd3f2",
      "transactionType": "CALL",
      "contractName": null,
      "contractAddress": "0x07d053e6bbaebbb9f8cc1217b4d6a65155d7538b",
      "function": "vote(uint256,bool)",
      "arguments": [
        "3",
        "true"
      ],
      "transaction": {
        "from": "0x25d8d7bff4d6c7af503b5ede7d4503bd9ad66d6b",
        "to": "0x07d053e6bbaebbb9f8cc1217b4d6a65155d7538b",
        "gas": "0x26d40",
        "value": "0x0",
        "input": "0xc9d27afe00000000000000000000000000000000000000000000000000000000000000030000000000000000000000000000000000000000000000000000000000000001",
        "nonce": "0x1b",
        "chainId": "0x106a"
      },
      "additionalContracts": [],
      "isFixedGasLimit": false
    }
  ],
  "receipts": [
    {
      "status": "0x1",
      "cumulativeGasUsed": "0x25409",
      "logs": [
        {
          "address": "0x07d053e6bbaebbb9f8cc1217b4d6a65155d7538b",
          "topics": [
            "0xd86580d0add65545c5e21cff01d9ff3dd4fd3572c24f1f84cf197fa41b2dec1e"
          ],
          "data": "0x000000000000000000000000000000000000000000000000000000000000000300000000000000000000000000000000000000000000000000000000000000000000000000000000000000000000000000000000000000000000000000000000000000000000000000000000000000000000000000000000000000000000000000000000000000000000000000000000000000000000000000000000000000000000000000000000000000000000000000000000000000000000000000000000",
          "blockHash": "0xecd219d049129dbbd15df109207e7515b8ac758ef73797d5baa752c9dfc9b055",
          "blockNumber": "0x7ce2e6",
          "transactionHash": "0xe78011226637cacd19582858de50c2beb35b57f2f6cee74c1f3412208abbd3f2",
          "transactionIndex": "0x1",
          "logIndex": "0x0",
          "removed": false
        }
      ],
      "logsBloom": "0x00000000000000000000000000000000000000000000000000000000000000000000000000000000000000000000000000400000000000000000000000000000000000000000000000000000000000000000000000000000000000000000000000000000000000000000000000000000000000000000000000000000000000000080000000000000000000000000000000000000000000000000000000000000000000000000000000000000000004000000000000000000010000000000000000000000000000000000000000000000000000000000000000000000200000000000000000000000000000000002000000000000000000000000000000000000",
      "type": "0x2",
      "transactionHash": "0xe78011226637cacd19582858de50c2beb35b57f2f6cee74c1f3412208abbd3f2",
      "transactionIndex": "0x1",
      "blockHash": "0xecd219d049129dbbd15df109207e7515b8ac758ef73797d5baa752c9dfc9b055",
      "blockNumber": "0x7ce2e6",
      "gasUsed": "0x1a8ca",
      "effectiveGasPrice": "0xfe",
      "from": "0x25d8d7bff4d6c7af503b5ede7d4503bd9ad66d6b",
      "to": "0x07d053e6bbaebbb9f8cc1217b4d6a65155d7538b",
      "contractAddress": null,
      "l1BaseFeeScalar": "0x2af8",
      "l1BlobBaseFee": "0x91d0d8a",
      "l1BlobBaseFeeScalar": "0x109618",
      "l1Fee": "0x3dea498b8",
      "l1GasPrice": "0x196c",
      "l1GasUsed": "0x640"
    }
  ],
  "libraries": [],
  "pending": [],
  "returns": {},
  "timestamp": 1721682092,
  "chain": 4202,
  "commit": "ecb4ae9"
}