{
  "transactions": [
    {
      "hash": "0x86f9606cc5d8949485738875e05b608c4854b0747de3da5f83af97f6c57a1d34",
      "transactionType": "CALL",
      "contractName": null,
      "contractAddress": "0x07d053e6bbaebbb9f8cc1217b4d6a65155d7538b",
      "function": "vote(uint256,bool)",
      "arguments": [
        "1",
        "true"
      ],
      "transaction": {
        "from": "0x25d8d7bff4d6c7af503b5ede7d4503bd9ad66d6b",
        "to": "0x07d053e6bbaebbb9f8cc1217b4d6a65155d7538b",
        "gas": "0x26d40",
        "value": "0x0",
        "input": "0xc9d27afe00000000000000000000000000000000000000000000000000000000000000010000000000000000000000000000000000000000000000000000000000000001",
        "nonce": "0x19",
        "chainId": "0x106a"
      },
      "additionalContracts": [],
      "isFixedGasLimit": false
    }
  ],
  "receipts": [
    {
      "status": "0x1",
      "cumulativeGasUsed": "0x25415",
      "logs": [
        {
          "address": "0x07d053e6bbaebbb9f8cc1217b4d6a65155d7538b",
          "topics": [
            "0xd86580d0add65545c5e21cff01d9ff3dd4fd3572c24f1f84cf197fa41b2dec1e"
          ],
          "data": "0x000000000000000000000000000000000000000000000000000000000000000100000000000000000000000000000000000000000000000000000000000000000000000000000000000000000000000000000000000000000000000000000000000000000000000000000000000000000000000000000000000000000000000000000000000000000000000000000000000000000000000000000000000000000000000000000000000000000000000000000000000000000000000000000000",
          "blockHash": "0x7c1552907cedfe889cc057ec5cbf07a3bef1d7768609187ab3021e086f117d06",
          "blockNumber": "0x7acb07",
          "transactionHash": "0x86f9606cc5d8949485738875e05b608c4854b0747de3da5f83af97f6c57a1d34",
          "transactionIndex": "0x1",
          "logIndex": "0x0",
          "removed": false
        }
      ],
      "logsBloom": "0x00000000000000000000000000000000000000000000000000000000000000000000000000000000000000000000000000400000000000000000000000000000000000000000000000000000000000000000000000000000000000000000000000000000000000000000000000000000000000000000000000000000000000000080000000000000000000000000000000000000000000000000000000000000000000000000000000000000000004000000000000000000010000000000000000000000000000000000000000000000000000000000000000000000200000000000000000000000000000000002000000000000000000000000000000000000",
      "type": "0x2",
      "transactionHash": "0x86f9606cc5d8949485738875e05b608c4854b0747de3da5f83af97f6c57a1d34",
      "transactionIndex": "0x1",
      "blockHash": "0x7c1552907cedfe889cc057ec5cbf07a3bef1d7768609187ab3021e086f117d06",
      "blockNumber": "0x7acb07",
      "gasUsed": "0x1a8ca",
      "effectiveGasPrice": "0xfe",
      "from": "0x25d8d7bff4d6c7af503b5ede7d4503bd9ad66d6b",
      "to": "0x07d053e6bbaebbb9f8cc1217b4d6a65155d7538b",
      "contractAddress": null,
      "l1BaseFeeScalar": "0x2af8",
      "l1BlobBaseFee": "0x28a",
      "l1BlobBaseFeeScalar": "0x109618",
      "l1Fee": "0x7051242d22",
      "l1GasPrice": "0x661b372e2",
      "l1GasUsed": "0x640"
    }
  ],
  "libraries": [],
  "pending": [],
  "returns": {},
  "timestamp": 1721407726,
  "chain": 4202,
  "commit": "299a1c8"
}