{
  "transactions": [
    {
      "hash": "0x62063b74909d5fec8753414e207064c761392d45d91d4dee919d2e264b6f8f15",
      "transactionType": "CALL",
      "contractName": null,
      "contractAddress": "0xafe36892a12da935cd1006db78282a5e128a6673",
      "function": "vote(uint256,bool)",
      "arguments": [
        "1",
        "true"
      ],
      "transaction": {
        "from": "0x25d8d7bff4d6c7af503b5ede7d4503bd9ad66d6b",
        "to": "0xafe36892a12da935cd1006db78282a5e128a6673",
        "gas": "0x24b5b",
        "value": "0x0",
        "input": "0xc9d27afe00000000000000000000000000000000000000000000000000000000000000010000000000000000000000000000000000000000000000000000000000000001",
        "nonce": "0x15",
        "chainId": "0x106a"
      },
      "additionalContracts": [],
      "isFixedGasLimit": false
    }
  ],
  "receipts": [
    {
      "status": "0x1",
      "cumulativeGasUsed": "0x25470",
      "logs": [
        {
          "address": "0xafe36892a12da935cd1006db78282a5e128a6673",
          "topics": [
            "0xd86580d0add65545c5e21cff01d9ff3dd4fd3572c24f1f84cf197fa41b2dec1e"
          ],
          "data": "0x000000000000000000000000000000000000000000000000000000000000000100000000000000000000000000000000000000000000000000000000000000000000000000000000000000000000000000000000000000000000000000000000000000000000000000000000000000000000000000000000000000000000000000000000000000000000000000000000000000000000000000000000000000000000000000000000000000000000000000000000000000000000000000000000",
          "blockHash": "0x3f2290f6cd283292803ebe8f3dca05c8cd1c1429d5c04fa1f84de8515d9377bf",
          "blockNumber": "0x7a7158",
          "transactionHash": "0x62063b74909d5fec8753414e207064c761392d45d91d4dee919d2e264b6f8f15",
          "transactionIndex": "0x1",
          "logIndex": "0x0",
          "removed": false
        }
      ],
      "logsBloom": "0x00000000000000000000000000000000000000000000000000000000000000020000000000000000000000000000000000000000000000000000000000000000000000000000000000000400000000000000000000000000000000000000000000000000000000000000000000000000000000000000000000000000000000000080000000000000000000000000000000000000000000000000000000000000000000000000000000000000000004000000000000000000000000000000000000000000000000000000000000000000000000000000000000000100200000000000000000000000000000000000000000000000000000000000000000000000",
      "type": "0x2",
      "transactionHash": "0x62063b74909d5fec8753414e207064c761392d45d91d4dee919d2e264b6f8f15",
      "transactionIndex": "0x1",
      "blockHash": "0x3f2290f6cd283292803ebe8f3dca05c8cd1c1429d5c04fa1f84de8515d9377bf",
      "blockNumber": "0x7a7158",
      "gasUsed": "0x1a93d",
      "effectiveGasPrice": "0xfe",
      "from": "0x25d8d7bff4d6c7af503b5ede7d4503bd9ad66d6b",
      "to": "0xafe36892a12da935cd1006db78282a5e128a6673",
      "contractAddress": null,
      "l1BaseFeeScalar": "0x2af8",
      "l1BlobBaseFee": "0x1",
      "l1BlobBaseFeeScalar": "0x109618",
      "l1Fee": "0x18a93e0a3",
      "l1GasPrice": "0x166b4fa6",
      "l1GasUsed": "0x640"
    }
  ],
  "libraries": [],
  "pending": [],
  "returns": {},
  "timestamp": 1721361812,
  "chain": 4202,
  "commit": "7459ce0"
}