{
  "transactions": [
    {
      "hash": "0xbaf54466d8bce196ad671f7227f24ee83f9fb6059f56624b84058eb59932baaf",
      "transactionType": "CALL",
      "contractName": null,
      "contractAddress": "0x03b79ac38cc48d6cc0e37390b54426d1b48b3138",
      "function": "vote(uint256,bool)",
      "arguments": [
        "1",
        "true"
      ],
      "transaction": {
        "from": "0x25d8d7bff4d6c7af503b5ede7d4503bd9ad66d6b",
        "to": "0x03b79ac38cc48d6cc0e37390b54426d1b48b3138",
        "gas": "0x24a83",
        "value": "0x0",
        "input": "0xc9d27afe00000000000000000000000000000000000000000000000000000000000000010000000000000000000000000000000000000000000000000000000000000001",
        "nonce": "0xb",
        "chainId": "0x106a"
      },
      "additionalContracts": [],
      "isFixedGasLimit": false
    }
  ],
  "receipts": [
    {
      "status": "0x1",
      "cumulativeGasUsed": "0x253df",
      "logs": [
        {
          "address": "0x03b79ac38cc48d6cc0e37390b54426d1b48b3138",
          "topics": [
            "0xd86580d0add65545c5e21cff01d9ff3dd4fd3572c24f1f84cf197fa41b2dec1e"
          ],
          "data": "0x000000000000000000000000000000000000000000000000000000000000000100000000000000000000000000000000000000000000000000000000000000000000000000000000000000000000000000000000000000000000000000000000000000000000000000000000000000000000000000000000000000000000000000000000000000000000000000000000000000000000000000000000000000000000000000000000000000000000000000000000000000000000000000000000",
          "blockHash": "0x6f1ebb4619989928ec6764f01b0f5a58dc73b781bbcbe08837c87f4f9bb17873",
          "blockNumber": "0x79ee07",
          "transactionHash": "0xbaf54466d8bce196ad671f7227f24ee83f9fb6059f56624b84058eb59932baaf",
          "transactionIndex": "0x1",
          "logIndex": "0x0",
          "removed": false
        }
      ],
      "logsBloom": "0x00000000000000000000000000000000000000000000000000000000000080000000000000000000000000000000000000000000000000000000000000000000000000000000000000000000000000000000000000000000000000000000000000000000000000000000000000000000000000000000000000000000000000000080000000000000000000000000000000000000000000000000000000000000000000000000000000000000000004000000001000000000000000000000000000000000000000000000000000000000000000000000000000000000200000000000010000000000000000000000000000000000000000000000000000000000",
      "type": "0x2",
      "transactionHash": "0xbaf54466d8bce196ad671f7227f24ee83f9fb6059f56624b84058eb59932baaf",
      "transactionIndex": "0x1",
      "blockHash": "0x6f1ebb4619989928ec6764f01b0f5a58dc73b781bbcbe08837c87f4f9bb17873",
      "blockNumber": "0x79ee07",
      "gasUsed": "0x1a8a0",
      "effectiveGasPrice": "0xfe",
      "from": "0x25d8d7bff4d6c7af503b5ede7d4503bd9ad66d6b",
      "to": "0x03b79ac38cc48d6cc0e37390b54426d1b48b3138",
      "contractAddress": null,
      "l1BaseFeeScalar": "0x2af8",
      "l1BlobBaseFee": "0x1",
      "l1BlobBaseFeeScalar": "0x109618",
      "l1Fee": "0x4e876f9169",
      "l1GasPrice": "0x4763d9c9a",
      "l1GasUsed": "0x640"
    }
  ],
  "libraries": [],
  "pending": [],
  "returns": {},
  "timestamp": 1721294585,
  "chain": 4202,
  "commit": "7459ce0"
}