{
  "transactions": [
    {
      "hash": "0xf6ddb3b4e107b77ec1c58bdbe8c3d4eb8b7e95a494305ee4ec918556299979b2",
      "transactionType": "CALL",
      "contractName": null,
      "contractAddress": "0xb5c3b81f5be0007b3e74b46526fa47c88740c73d",
      "function": "vote(uint256,bool)",
      "arguments": [
        "1",
        "true"
      ],
      "transaction": {
        "from": "0x25d8d7bff4d6c7af503b5ede7d4503bd9ad66d6b",
        "to": "0xb5c3b81f5be0007b3e74b46526fa47c88740c73d",
        "gas": "0x24b3d",
        "value": "0x0",
        "input": "0xc9d27afe00000000000000000000000000000000000000000000000000000000000000010000000000000000000000000000000000000000000000000000000000000001",
        "nonce": "0x11",
        "chainId": "0x106a"
      },
      "additionalContracts": [],
      "isFixedGasLimit": false
    }
  ],
  "receipts": [
    {
      "status": "0x1",
      "cumulativeGasUsed": "0x2545a",
      "logs": [
        {
          "address": "0xb5c3b81f5be0007b3e74b46526fa47c88740c73d",
          "topics": [
            "0xd86580d0add65545c5e21cff01d9ff3dd4fd3572c24f1f84cf197fa41b2dec1e"
          ],
          "data": "0x000000000000000000000000000000000000000000000000000000000000000100000000000000000000000000000000000000000000000000000000000000000000000000000000000000000000000000000000000000000000000000000000000000000000000000000000000000000000000000000000000000000000000000000000000000000000000000000000000000000000000000000000000000000000000000000000000000000000000000000000000000000000000000000000",
          "blockHash": "0x32b2805b1ae571c52f3610495f3873954eb77bf66b35c6a819c9646b08da79ee",
          "blockNumber": "0x7a6bb8",
          "transactionHash": "0xf6ddb3b4e107b77ec1c58bdbe8c3d4eb8b7e95a494305ee4ec918556299979b2",
          "transactionIndex": "0x1",
          "logIndex": "0x0",
          "removed": false
        }
      ],
      "logsBloom": "0x00000000000000000000000000000000000000000000000000000000000000000000000000001000000000000000000000000000000000000000000000000000000000000000000000000000000000000000000000000000000000000000000000000000000000000000000004000000000000000000000000000000000000000080000000000000000000000400000000000000000000000000000000000000000000000000000000000000000004000000000000000000000000000000000000000000000000000000000000000000000000000000000000000000200000000000000000000000000000000000000000000000000000000000000000000000",
      "type": "0x2",
      "transactionHash": "0xf6ddb3b4e107b77ec1c58bdbe8c3d4eb8b7e95a494305ee4ec918556299979b2",
      "transactionIndex": "0x1",
      "blockHash": "0x32b2805b1ae571c52f3610495f3873954eb77bf66b35c6a819c9646b08da79ee",
      "blockNumber": "0x7a6bb8",
      "gasUsed": "0x1a927",
      "effectiveGasPrice": "0xfe",
      "from": "0x25d8d7bff4d6c7af503b5ede7d4503bd9ad66d6b",
      "to": "0xb5c3b81f5be0007b3e74b46526fa47c88740c73d",
      "contractAddress": null,
      "l1BaseFeeScalar": "0x2af8",
      "l1BlobBaseFee": "0x1",
      "l1BlobBaseFeeScalar": "0x109618",
      "l1Fee": "0x5bec00a3",
      "l1GasPrice": "0x5390ba6",
      "l1GasUsed": "0x640"
    }
  ],
  "libraries": [],
  "pending": [],
  "returns": {},
  "timestamp": 1721358931,
  "chain": 4202,
  "commit": "7459ce0"
}