{
  "transactions": [
    {
      "hash": "0x4fa78e774c75f6cc0c775de8fe294f360c51aad9a81311a1f8beb4df9db2e17d",
      "transactionType": "CALL",
      "contractName": null,
      "contractAddress": "0xb5c3b81f5be0007b3e74b46526fa47c88740c73d",
      "function": "createPoll(uint256,string,uint256,bool)",
      "arguments": [
        "1",
        "\"Indomie Cartoon\"",
        "1",
        "false"
      ],
      "transaction": {
        "from": "0x617eca02ee345f7db08a941f22cef7b284484e2e",
        "to": "0xb5c3b81f5be0007b3e74b46526fa47c88740c73d",
        "gas": "0x2df1a",
        "value": "0x0",
        "input": "0x3af376910000000000000000000000000000000000000000000000000000000000000001000000000000000000000000000000000000000000000000000000000000008000000000000000000000000000000000000000000000000000000000000000010000000000000000000000000000000000000000000000000000000000000000000000000000000000000000000000000000000000000000000000000000000f496e646f6d696520436172746f6f6e0000000000000000000000000000000000",
        "nonce": "0x5",
        "chainId": "0x106a"
      },
      "additionalContracts": [],
      "isFixedGasLimit": false
    }
  ],
  "receipts": [
    {
      "status": "0x1",
      "cumulativeGasUsed": "0x2bf67",
      "logs": [
        {
          "address": "0xb5c3b81f5be0007b3e74b46526fa47c88740c73d",
          "topics": [
            "0x65d5ac2bf1bca69566bef1affdfca5bb37b9577fc0b3af4c7c4638225e67b39c"
          ],
          "data": "0x00000000000000000000000000000000000000000000000000000000000000010000000000000000000000000000000000000000000000000000000000000040000000000000000000000000000000000000000000000000000000000000000f496e646f6d696520436172746f6f6e0000000000000000000000000000000000",
          "blockHash": "0x2a62cfc0b8d5c1ef4b0a59c22c930a7c5c1c1a48055a0af866f4b2bc429dd4d6",
          "blockNumber": "0x7a6b3a",
          "transactionHash": "0x4fa78e774c75f6cc0c775de8fe294f360c51aad9a81311a1f8beb4df9db2e17d",
          "transactionIndex": "0x1",
          "logIndex": "0x0",
          "removed": false
        }
      ],
      "logsBloom": "0x00000000000000000000000000000000000000000000000000000000000000000000000008001000000000000000000000000000000000000000000000000000000000000000200000000000000000000000000000000000000000000000000000000000000000000000020004000000000000000000000000000000000000000000000000000000000000000400000000000000000000000000000000000000000000000000000000000000000000000000000000000000000000000000000000000000000000000000000000000000000000000000000000000000000000000000000000000000000000000000000000000000000000000000000000000000",
      "type": "0x2",
      "transactionHash": "0x4fa78e774c75f6cc0c775de8fe294f360c51aad9a81311a1f8beb4df9db2e17d",
      "transactionIndex": "0x1",
      "blockHash": "0x2a62cfc0b8d5c1ef4b0a59c22c930a7c5c1c1a48055a0af866f4b2bc429dd4d6",
      "blockNumber": "0x7a6b3a",
      "gasUsed": "0x21434",
      "effectiveGasPrice": "0xfe",
      "from": "0x617eca02ee345f7db08a941f22cef7b284484e2e",
      "to": "0xb5c3b81f5be0007b3e74b46526fa47c88740c73d",
      "contractAddress": null,
      "l1BaseFeeScalar": "0x2af8",
      "l1BlobBaseFee": "0x1",
      "l1BlobBaseFeeScalar": "0x109618",
      "l1Fee": "0x35db1391",
      "l1GasPrice": "0x30f5b45",
      "l1GasUsed": "0x640"
    }
  ],
  "libraries": [],
  "pending": [],
  "returns": {},
  "timestamp": 1721358679,
  "chain": 4202,
  "commit": "7459ce0"
}