{
  "transactions": [
    {
      "hash": "0xefe4eee4eb621227d75847f21db8eb0291680d4a87c140e595d84c9acbf1913d",
      "transactionType": "CALL",
      "contractName": null,
      "contractAddress": "0xafe36892a12da935cd1006db78282a5e128a6673",
      "function": "createPoll(uint256,string,uint256,bool)",
      "arguments": [
        "2",
        "\"Rice Quarter Bags\"",
        "1",
        "false"
      ],
      "transaction": {
        "from": "0x617eca02ee345f7db08a941f22cef7b284484e2e",
        "to": "0xafe36892a12da935cd1006db78282a5e128a6673",
        "gas": "0x2a941",
        "value": "0x0",
        "input": "0x3af37691000000000000000000000000000000000000000000000000000000000000000200000000000000000000000000000000000000000000000000000000000000800000000000000000000000000000000000000000000000000000000000000001000000000000000000000000000000000000000000000000000000000000000000000000000000000000000000000000000000000000000000000000000000115269636520517561727465722042616773000000000000000000000000000000",
        "nonce": "0x9",
        "chainId": "0x106a"
      },
      "additionalContracts": [],
      "isFixedGasLimit": false
    }
  ],
  "receipts": [
    {
      "status": "0x1",
      "cumulativeGasUsed": "0x27d10",
      "logs": [
        {
          "address": "0xafe36892a12da935cd1006db78282a5e128a6673",
          "topics": [
            "0x65d5ac2bf1bca69566bef1affdfca5bb37b9577fc0b3af4c7c4638225e67b39c"
          ],
          "data": "0x0000000000000000000000000000000000000000000000000000000000000002000000000000000000000000000000000000000000000000000000000000004000000000000000000000000000000000000000000000000000000000000000115269636520517561727465722042616773000000000000000000000000000000",
          "blockHash": "0xdee2e93d1835708fdbb387c4033b054450d7f5daabde2e8ab7a60b0dce790207",
          "blockNumber": "0x7a7bb8",
          "transactionHash": "0xefe4eee4eb621227d75847f21db8eb0291680d4a87c140e595d84c9acbf1913d",
          "transactionIndex": "0x1",
          "logIndex": "0x0",
          "removed": false
        }
      ],
      "logsBloom": "0x00000000000000000000000000000000000000000000000000000000000000020000000008000000000000000000000000000000000000000000000000000000000000000000200000000400000000000000000000000000000000000000000000000000000000000000020000000000000000000000000000000000000000000000000000000000000000000000000000000000000000000000000000000000000000000000000000000000000000000000000000000000000000000000000000000000000000000000000000000000000000000000000000000100000000000000000000000000000000000000000000000000000000000000000000000000",
      "type": "0x2",
      "transactionHash": "0xefe4eee4eb621227d75847f21db8eb0291680d4a87c140e595d84c9acbf1913d",
      "transactionIndex": "0x1",
      "blockHash": "0xdee2e93d1835708fdbb387c4033b054450d7f5daabde2e8ab7a60b0dce790207",
      "blockNumber": "0x7a7bb8",
      "gasUsed": "0x1d1d1",
      "effectiveGasPrice": "0xfe",
      "from": "0x617eca02ee345f7db08a941f22cef7b284484e2e",
      "to": "0xafe36892a12da935cd1006db78282a5e128a6673",
      "contractAddress": null,
      "l1BaseFeeScalar": "0x2af8",
      "l1BlobBaseFee": "0x21ec",
      "l1BlobBaseFeeScalar": "0x109618",
      "l1Fee": "0x9a71c915d",
      "l1GasPrice": "0x8c669f7b",
      "l1GasUsed": "0x640"
    }
  ],
  "libraries": [],
  "pending": [],
  "returns": {},
  "timestamp": 1721367124,
  "chain": 4202,
  "commit": "7459ce0"
}