{
  "transactions": [
    {
      "hash": "0x1f39453b9d4a5e12208c285f3e31d7a091c51767b0c8f7dc86d67a4ad0da34de",
      "transactionType": "CALL",
      "contractName": null,
      "contractAddress": "0x07d053e6bbaebbb9f8cc1217b4d6a65155d7538b",
      "function": "createPoll(uint256,string,uint256,bool)",
      "arguments": [
        "3",
        "\"Garri Quarter Bags\"",
        "1",
        "false"
      ],
      "transaction": {
        "from": "0x617eca02ee345f7db08a941f22cef7b284484e2e",
        "to": "0x07d053e6bbaebbb9f8cc1217b4d6a65155d7538b",
        "gas": "0x28370",
        "value": "0x0",
        "input": "0x3af37691000000000000000000000000000000000000000000000000000000000000000300000000000000000000000000000000000000000000000000000000000000800000000000000000000000000000000000000000000000000000000000000001000000000000000000000000000000000000000000000000000000000000000000000000000000000000000000000000000000000000000000000000000000124761727269205175617274657220426167730000000000000000000000000000",
        "nonce": "0x11",
        "chainId": "0x106a"
      },
      "additionalContracts": [],
      "isFixedGasLimit": false
    }
  ],
  "receipts": [
    {
      "status": "0x1",
      "cumulativeGasUsed": "0x27d16",
      "logs": [
        {
          "address": "0x07d053e6bbaebbb9f8cc1217b4d6a65155d7538b",
          "topics": [
            "0x65d5ac2bf1bca69566bef1affdfca5bb37b9577fc0b3af4c7c4638225e67b39c"
          ],
          "data": "0x0000000000000000000000000000000000000000000000000000000000000003000000000000000000000000000000000000000000000000000000000000004000000000000000000000000000000000000000000000000000000000000000124761727269205175617274657220426167730000000000000000000000000000",
          "blockHash": "0xca7c77dfb0f906be650a8041153ffefb6338aa624bb165e5a2d08962a95c4f8f",
          "blockNumber": "0x7ce271",
          "transactionHash": "0x1f39453b9d4a5e12208c285f3e31d7a091c51767b0c8f7dc86d67a4ad0da34de",
          "transactionIndex": "0x1",
          "logIndex": "0x0",
          "removed": false
        }
      ],
      "logsBloom": "0x00000000000000000000000000000000000000000000000000000000000000000000000008000000000000000000000000400000000000000000000000000000000000000000200000000000000000000000000000000000000000000000000000000000000000000000020000000000000000000000000000000000000000000000000000000000000000000000000000000000000000000000000000000000000000000000000000000000000000000000000000000000010000000000000000000000000000000000000000000000000000000000000000000000000000000000000000000000000000000002000000000000000000000000000000000000",
      "type": "0x2",
      "transactionHash": "0x1f39453b9d4a5e12208c285f3e31d7a091c51767b0c8f7dc86d67a4ad0da34de",
      "transactionIndex": "0x1",
      "blockHash": "0xca7c77dfb0f906be650a8041153ffefb6338aa624bb165e5a2d08962a95c4f8f",
      "blockNumber": "0x7ce271",
      "gasUsed": "0x1d1d7",
      "effectiveGasPrice": "0xfe",
      "from": "0x617eca02ee345f7db08a941f22cef7b284484e2e",
      "to": "0x07d053e6bbaebbb9f8cc1217b4d6a65155d7538b",
      "contractAddress": null,
      "l1BaseFeeScalar": "0x2af8",
      "l1BlobBaseFee": "0xaa9c82d",
      "l1BlobBaseFeeScalar": "0x109618",
      "l1Fee": "0x487199375",
      "l1GasPrice": "0x2128",
      "l1GasUsed": "0x640"
    }
  ],
  "libraries": [],
  "pending": [],
  "returns": {},
  "timestamp": 1721681863,
  "chain": 4202,
  "commit": "ecb4ae9"
}