{
  "transactions": [
    {
      "hash": "0xf45b12ad89794b3952b5a7f9b8a982464819e86f848f63e0cdf12b43a7296f25",
      "transactionType": "CALL",
      "contractName": null,
      "contractAddress": "0x03b79ac38cc48d6cc0e37390b54426d1b48b3138",
      "function": "createPoll(uint256,string,uint256)",
      "arguments": [
        "1",
        "\"Indomie Cartoon\"",
        "1"
      ],
      "transaction": {
        "from": "0x617eca02ee345f7db08a941f22cef7b284484e2e",
        "to": "0x03b79ac38cc48d6cc0e37390b54426d1b48b3138",
        "gas": "0x30723",
        "value": "0x0",
        "input": "0x236e1b93000000000000000000000000000000000000000000000000000000000000000100000000000000000000000000000000000000000000000000000000000000600000000000000000000000000000000000000000000000000000000000000001000000000000000000000000000000000000000000000000000000000000000f496e646f6d696520436172746f6f6e0000000000000000000000000000000000",
        "nonce": "0x2",
        "chainId": "0x106a"
      },
      "additionalContracts": [],
      "isFixedGasLimit": false
    }
  ],
  "receipts": [
    {
      "status": "0x1",
      "cumulativeGasUsed": "0x2de06",
      "logs": [
        {
          "address": "0x03b79ac38cc48d6cc0e37390b54426d1b48b3138",
          "topics": [
            "0x65d5ac2bf1bca69566bef1affdfca5bb37b9577fc0b3af4c7c4638225e67b39c"
          ],
          "data": "0x00000000000000000000000000000000000000000000000000000000000000010000000000000000000000000000000000000000000000000000000000000040000000000000000000000000000000000000000000000000000000000000000f496e646f6d696520436172746f6f6e0000000000000000000000000000000000",
          "blockHash": "0x16854374cbaee42268aa0b0f6c07dfc7e16916ebad94fd12c64cd84041fda442",
          "blockNumber": "0x79ea11",
          "transactionHash": "0xf45b12ad89794b3952b5a7f9b8a982464819e86f848f63e0cdf12b43a7296f25",
          "transactionIndex": "0x1",
          "logIndex": "0x0",
          "removed": false
        }
      ],
      "logsBloom": "0x00000000000000000000000000000000000000000000000000000000000080000000000008000000000000000000000000000000000000000000000000000000000000000000200000000000000000000000000000000000000000000000000000000000000000000000020000000000000000000000000000000000000000000000000000000000000000000000000000000000000000000000000000000000000000000000000000000000000000000000001000000000000000000000000000000000000000000000000000000000000000000000000000000000000000000000010000000000000000000000000000000000000000000000000000000000",
      "type": "0x2",
      "transactionHash": "0xf45b12ad89794b3952b5a7f9b8a982464819e86f848f63e0cdf12b43a7296f25",
      "transactionIndex": "0x1",
      "blockHash": "0x16854374cbaee42268aa0b0f6c07dfc7e16916ebad94fd12c64cd84041fda442",
      "blockNumber": "0x79ea11",
      "gasUsed": "0x21203",
      "effectiveGasPrice": "0xfe",
      "from": "0x617eca02ee345f7db08a941f22cef7b284484e2e",
      "to": "0x03b79ac38cc48d6cc0e37390b54426d1b48b3138",
      "contractAddress": null,
      "l1BaseFeeScalar": "0x2af8",
      "l1BlobBaseFee": "0x4",
      "l1BlobBaseFeeScalar": "0x109618",
      "l1Fee": "0x358322254a",
      "l1GasPrice": "0x30a5c1f1d",
      "l1GasUsed": "0x640"
    }
  ],
  "libraries": [],
  "pending": [],
  "returns": {},
  "timestamp": 1721292551,
  "chain": 4202,
  "commit": "7459ce0"
}