{
  "transactions": [
    {
      "hash": "0x9147c85f4797a4bf6b4119e67c4b9556bdaafc489d0e21fdb0b38f25f8f33abf",
      "transactionType": "CALL",
      "contractName": null,
      "contractAddress": "0xafe36892a12da935cd1006db78282a5e128a6673",
      "function": "createPoll(uint256,string,uint256,bool)",
      "arguments": [
        "3",
        "\"Garri Quarter Bags\"",
        "100",
        "false"
      ],
      "transaction": {
        "from": "0x617eca02ee345f7db08a941f22cef7b284484e2e",
        "to": "0xafe36892a12da935cd1006db78282a5e128a6673",
        "gas": "0x28378",
        "value": "0x0",
        "input": "0x3af37691000000000000000000000000000000000000000000000000000000000000000300000000000000000000000000000000000000000000000000000000000000800000000000000000000000000000000000000000000000000000000000000064000000000000000000000000000000000000000000000000000000000000000000000000000000000000000000000000000000000000000000000000000000124761727269205175617274657220426167730000000000000000000000000000",
        "nonce": "0xa",
        "chainId": "0x106a"
      },
      "additionalContracts": [],
      "isFixedGasLimit": false
    }
  ],
  "receipts": [
    {
      "status": "0x1",
      "cumulativeGasUsed": "0x27d1c",
      "logs": [
        {
          "address": "0xafe36892a12da935cd1006db78282a5e128a6673",
          "topics": [
            "0x65d5ac2bf1bca69566bef1affdfca5bb37b9577fc0b3af4c7c4638225e67b39c"
          ],
          "data": "0x0000000000000000000000000000000000000000000000000000000000000003000000000000000000000000000000000000000000000000000000000000004000000000000000000000000000000000000000000000000000000000000000124761727269205175617274657220426167730000000000000000000000000000",
          "blockHash": "0xb464190eade95a4a5e244d526aad90a03a6e89c67143d956b4cc78f8aefa8ad1",
          "blockNumber": "0x7a7dac",
          "transactionHash": "0x9147c85f4797a4bf6b4119e67c4b9556bdaafc489d0e21fdb0b38f25f8f33abf",
          "transactionIndex": "0x1",
          "logIndex": "0x0",
          "removed": false
        }
      ],
      "logsBloom": "0x00000000000000000000000000000000000000000000000000000000000000020000000008000000000000000000000000000000000000000000000000000000000000000000200000000400000000000000000000000000000000000000000000000000000000000000020000000000000000000000000000000000000000000000000000000000000000000000000000000000000000000000000000000000000000000000000000000000000000000000000000000000000000000000000000000000000000000000000000000000000000000000000000000100000000000000000000000000000000000000000000000000000000000000000000000000",
      "type": "0x2",
      "transactionHash": "0x9147c85f4797a4bf6b4119e67c4b9556bdaafc489d0e21fdb0b38f25f8f33abf",
      "transactionIndex": "0x1",
      "blockHash": "0xb464190eade95a4a5e244d526aad90a03a6e89c67143d956b4cc78f8aefa8ad1",
      "blockNumber": "0x7a7dac",
      "gasUsed": "0x1d1dd",
      "effectiveGasPrice": "0xfe",
      "from": "0x617eca02ee345f7db08a941f22cef7b284484e2e",
      "to": "0xafe36892a12da935cd1006db78282a5e128a6673",
      "contractAddress": null,
      "l1BaseFeeScalar": "0x2af8",
      "l1BlobBaseFee": "0x1219",
      "l1BlobBaseFeeScalar": "0x109618",
      "l1Fee": "0xfe76520eb",
      "l1GasPrice": "0xe753dad3",
      "l1GasUsed": "0x640"
    }
  ],
  "libraries": [],
  "pending": [],
  "returns": {},
  "timestamp": 1721368123,
  "chain": 4202,
  "commit": "7459ce0"
}