{
  "transactions": [
    {
      "hash": "0x91726f8016c8bbce54a14d4fe075167ba11e10ffe8c089d1beaf50e3dea00a7f",
      "transactionType": "CALL",
      "contractName": null,
      "contractAddress": "0xafe36892a12da935cd1006db78282a5e128a6673",
      "function": "createPoll(uint256,string,uint256,bool)",
      "arguments": [
        "1",
        "\"Indomie Cartoon\"",
        "1",
        "false"
      ],
      "transaction": {
        "from": "0x617eca02ee345f7db08a941f22cef7b284484e2e",
        "to": "0xafe36892a12da935cd1006db78282a5e128a6673",
        "gas": "0x2df1a",
        "value": "0x0",
        "input": "0x3af376910000000000000000000000000000000000000000000000000000000000000001000000000000000000000000000000000000000000000000000000000000008000000000000000000000000000000000000000000000000000000000000000010000000000000000000000000000000000000000000000000000000000000000000000000000000000000000000000000000000000000000000000000000000f496e646f6d696520436172746f6f6e0000000000000000000000000000000000",
        "nonce": "0x7",
        "chainId": "0x106a"
      },
      "additionalContracts": [],
      "isFixedGasLimit": false
    }
  ],
  "receipts": [
    {
      "status": "0x1",
      "cumulativeGasUsed": "0x2bf67",
      "logs": [
        {
          "address": "0xafe36892a12da935cd1006db78282a5e128a6673",
          "topics": [
            "0x65d5ac2bf1bca69566bef1affdfca5bb37b9577fc0b3af4c7c4638225e67b39c"
          ],
          "data": "0x00000000000000000000000000000000000000000000000000000000000000010000000000000000000000000000000000000000000000000000000000000040000000000000000000000000000000000000000000000000000000000000000f496e646f6d696520436172746f6f6e0000000000000000000000000000000000",
          "blockHash": "0xb708a46b9dd253e1050ab8ce536f3c7f29d0a76f543b836b8de102785d775c5a",
          "blockNumber": "0x7a7134",
          "transactionHash": "0x91726f8016c8bbce54a14d4fe075167ba11e10ffe8c089d1beaf50e3dea00a7f",
          "transactionIndex": "0x1",
          "logIndex": "0x0",
          "removed": false
        }
      ],
      "logsBloom": "0x00000000000000000000000000000000000000000000000000000000000000020000000008000000000000000000000000000000000000000000000000000000000000000000200000000400000000000000000000000000000000000000000000000000000000000000020000000000000000000000000000000000000000000000000000000000000000000000000000000000000000000000000000000000000000000000000000000000000000000000000000000000000000000000000000000000000000000000000000000000000000000000000000000100000000000000000000000000000000000000000000000000000000000000000000000000",
      "type": "0x2",
      "transactionHash": "0x91726f8016c8bbce54a14d4fe075167ba11e10ffe8c089d1beaf50e3dea00a7f",
      "transactionIndex": "0x1",
      "blockHash": "0xb708a46b9dd253e1050ab8ce536f3c7f29d0a76f543b836b8de102785d775c5a",
      "blockNumber": "0x7a7134",
      "gasUsed": "0x21434",
      "effectiveGasPrice": "0xfe",
      "from": "0x617eca02ee345f7db08a941f22cef7b284484e2e",
      "to": "0xafe36892a12da935cd1006db78282a5e128a6673",
      "contractAddress": null,
      "l1BaseFeeScalar": "0x2af8",
      "l1BlobBaseFee": "0x1",
      "l1BlobBaseFeeScalar": "0x109618",
      "l1Fee": "0x1a6f3107e",
      "l1GasPrice": "0x1807fe01",
      "l1GasUsed": "0x640"
    }
  ],
  "libraries": [],
  "pending": [],
  "returns": {},
  "timestamp": 1721361740,
  "chain": 4202,
  "commit": "7459ce0"
}