{
  "transactions": [
    {
      "hash": "0xc262cd35f26a60bbe65c350b76655d187dc7b01e9850058264f0b9d414d95c10",
      "transactionType": "CALL",
      "contractName": null,
      "contractAddress": "0xba020441f604af0517f20a7cb5471ba63bbfa274",
      "function": "createPoll(uint256,string,uint256)",
      "arguments": [
        "1",
        "\"Indomie Cartoon\"",
        "1"
      ],
      "transaction": {
        "from": "0x617eca02ee345f7db08a941f22cef7b284484e2e",
        "to": "0xba020441f604af0517f20a7cb5471ba63bbfa274",
        "gas": "0x30723",
        "value": "0x0",
        "input": "0x236e1b93000000000000000000000000000000000000000000000000000000000000000100000000000000000000000000000000000000000000000000000000000000600000000000000000000000000000000000000000000000000000000000000001000000000000000000000000000000000000000000000000000000000000000f496e646f6d696520436172746f6f6e0000000000000000000000000000000000",
        "nonce": "0x4",
        "chainId": "0x106a"
      },
      "additionalContracts": [],
      "isFixedGasLimit": false
    }
  ],
  "receipts": [
    {
      "status": "0x1",
      "cumulativeGasUsed": "0x2bd2a",
      "logs": [
        {
          "address": "0xba020441f604af0517f20a7cb5471ba63bbfa274",
          "topics": [
            "0x65d5ac2bf1bca69566bef1affdfca5bb37b9577fc0b3af4c7c4638225e67b39c"
          ],
          "data": "0x00000000000000000000000000000000000000000000000000000000000000010000000000000000000000000000000000000000000000000000000000000040000000000000000000000000000000000000000000000000000000000000000f496e646f6d696520436172746f6f6e0000000000000000000000000000000000",
          "blockHash": "0xc93293ca55137c466ed7e8c058c052e4b1abc8a134b2807a8d128662c68e259a",
          "blockNumber": "0x7a56f8",
          "transactionHash": "0xc262cd35f26a60bbe65c350b76655d187dc7b01e9850058264f0b9d414d95c10",
          "transactionIndex": "0x1",
          "logIndex": "0x0",
          "removed": false
        }
      ],
      "logsBloom": "0x80000000000000000000000000000000000000000000000000000000000000000000000008000000000000000000000000000000000000000000000000000000000000000000200000000000000000000000000000000000000000000000000000000000000000000000020000000000000000000000000000000000000000000000000000000000000000000000000000000000000000000000200000000000000000000000000000000000000000000000000000000000000000000000000000000000000000000000000000000000000000000000000000000000000000400000000000000000000000000000000000000000000000000000000000000000",
      "type": "0x2",
      "transactionHash": "0xc262cd35f26a60bbe65c350b76655d187dc7b01e9850058264f0b9d414d95c10",
      "transactionIndex": "0x1",
      "blockHash": "0xc93293ca55137c466ed7e8c058c052e4b1abc8a134b2807a8d128662c68e259a",
      "blockNumber": "0x7a56f8",
      "gasUsed": "0x21203",
      "effectiveGasPrice": "0xfe",
      "from": "0x617eca02ee345f7db08a941f22cef7b284484e2e",
      "to": "0xba020441f604af0517f20a7cb5471ba63bbfa274",
      "contractAddress": null,
      "l1BaseFeeScalar": "0x2af8",
      "l1BlobBaseFee": "0x1",
      "l1BlobBaseFeeScalar": "0x109618",
      "l1Fee": "0x183a0ef",
      "l1GasPrice": "0x160636",
      "l1GasUsed": "0x640"
    }
  ],
  "libraries": [],
  "pending": [],
  "returns": {},
  "timestamp": 1721348307,
  "chain": 4202,
  "commit": "7459ce0"
}