{
  "transactions": [
    {
      "hash": "0x26f424d6b33964ca1229a1037c114627206e2f0f5847e4b32506de8bcfc72e2b",
      "transactionType": "CALL",
      "contractName": null,
      "contractAddress": "0x07d053e6bbaebbb9f8cc1217b4d6a65155d7538b",
      "function": "createPoll(uint256,string,uint256,bool)",
      "arguments": [
        "2",
        "\"Rice Quarter Bags\"",
        "100",
        "false"
      ],
      "transaction": {
        "from": "0x617eca02ee345f7db08a941f22cef7b284484e2e",
        "to": "0x07d053e6bbaebbb9f8cc1217b4d6a65155d7538b",
        "gas": "0x2a938",
        "value": "0x0",
        "input": "0x3af37691000000000000000000000000000000000000000000000000000000000000000200000000000000000000000000000000000000000000000000000000000000800000000000000000000000000000000000000000000000000000000000000064000000000000000000000000000000000000000000000000000000000000000000000000000000000000000000000000000000000000000000000000000000115269636520517561727465722042616773000000000000000000000000000000",
        "nonce": "0x10",
        "chainId": "0x106a"
      },
      "additionalContracts": [],
      "isFixedGasLimit": false
    }
  ],
  "receipts": [
    {
      "status": "0x1",
      "cumulativeGasUsed": "0x27cfe",
      "logs": [
        {
          "address": "0x07d053e6bbaebbb9f8cc1217b4d6a65155d7538b",
          "topics": [
            "0x65d5ac2bf1bca69566bef1affdfca5bb37b9577fc0b3af4c7c4638225e67b39c"
          ],
          "data": "0x0000000000000000000000000000000000000000000000000000000000000002000000000000000000000000000000000000000000000000000000000000004000000000000000000000000000000000000000000000000000000000000000115269636520517561727465722042616773000000000000000000000000000000",
          "blockHash": "0xdba6e8812fb91cc5efdbe4a459568d02f4eadfe6c74f6040e0efbae9d3e07457",
          "blockNumber": "0x7adcab",
          "transactionHash": "0x26f424d6b33964ca1229a1037c114627206e2f0f5847e4b32506de8bcfc72e2b",
          "transactionIndex": "0x1",
          "logIndex": "0x0",
          "removed": false
        }
      ],
      "logsBloom": "0x00000000000000000000000000000000000000000000000000000000000000000000000008000000000000000000000000400000000000000000000000000000000000000000200000000000000000000000000000000000000000000000000000000000000000000000020000000000000000000000000000000000000000000000000000000000000000000000000000000000000000000000000000000000000000000000000000000000000000000000000000000000010000000000000000000000000000000000000000000000000000000000000000000000000000000000000000000000000000000002000000000000000000000000000000000000",
      "type": "0x2",
      "transactionHash": "0x26f424d6b33964ca1229a1037c114627206e2f0f5847e4b32506de8bcfc72e2b",
      "transactionIndex": "0x1",
      "blockHash": "0xdba6e8812fb91cc5efdbe4a459568d02f4eadfe6c74f6040e0efbae9d3e07457",
      "blockNumber": "0x7adcab",
      "gasUsed": "0x1d1cb",
      "effectiveGasPrice": "0xfe",
      "from": "0x617eca02ee345f7db08a941f22cef7b284484e2e",
      "to": "0x07d053e6bbaebbb9f8cc1217b4d6a65155d7538b",
      "contractAddress": null,
      "l1BaseFeeScalar": "0x2af8",
      "l1BlobBaseFee": "0x1",
      "l1BlobBaseFeeScalar": "0x109618",
      "l1Fee": "0x613ef4ec",
      "l1GasPrice": "0x5867c70",
      "l1GasUsed": "0x640"
    }
  ],
  "libraries": [],
  "pending": [],
  "returns": {},
  "timestamp": 1721416763,
  "chain": 4202,
  "commit": "299a1c8"
}